:03000000020006F5
:03001900020003DF
:0300030002005F99
:20001C00AE82AF838E048F051EBEFF011FEC4D6013758A67758CFCC28DD28C308DFDC28C7D
:20003C00C28D80E022AF8274075F4480F5BC90000112001C43BC08E5BC30E4FB53BCEF855A
:20005C00BD82227595007596FF759D047582021200418582A090000112001C75820212003C
:06007C00418582A080FE18
:06001300E478FFF6D8FDC1
:0D000600758107120082E58260030200038D
:040082007582002261
:00000001FF
