:03000000020006F5
:03001900020003DF
:03000300020041B7
:20001C00AE82AF838E048F051EBEFF011FEC4D6013758A67758CFCC28DD28C308DFDC28C7D
:20003C00C28D80E0225391F8439207C290C291C29290000112001CD290C291D292900002B8
:20005C0012001CC290C291C29290000112001CC290D291D29290000212001CD290D291D22E
:0F007C009290000112001CC290C291C29280FEAD
:06001300E478FFF6D8FDC1
:0D00060075810712008BE582600302000384
:04008B007582002258
:00000001FF
