:03000000020006F5
:03001900020003DF
:03000300020041B7
:20001C00AE82AF838E048F051EBEFF011FEC4D6013758A67758CFCC28DD28C308DFDC28C7D
:20003C00C28D80E0225391F043920F43900F7F00740F4590FE8F058DF005F0740180022542
:20005C00E0D5F0FBF45EF590900001C00712001CD0070FBF040040D87F03740F4590FE8F5F
:20007C0005ED14F5F005F07401800225E0D5F0FBF45EF590900001C00712001CD007DFDADB
:05009C0043900F80FEFF
:06001300E478FFF6D8FDC1
:0D0006007581071200A1E58260030200036E
:0400A1007582002242
:00000001FF
