:03000000020006F5
:03005F0002000399
:0300030002008771
:20006200AE82AF838E048F051EBEFF011FEC4D6013758A67758CFCC28DD28C308DFDC28C37
:20008200C28D80E02253C9DF53CADF53C8DF90000112006243C82090000112006253C9DF6C
:2000A20043CA2053C8DF90000112006243C82090000112006243C92053CADF900001120017
:1B00C2006243C92043CA2053C8DF90000112006243C82090000112006280FEBB
:06003500E478FFF6D8FD9F
:200013007900E94400601B7A009000E1780175A000E493F2A308B8000205A0D9F4DAF275B2
:02003300A0FF2C
:20003B007800E84400600A790175A000E4F309D8FC7800E84400600C7900900001E4F0A3C3
:04005B00D8FCD9FAFA
:0D0006007581071200DDE582600302000332
:0400DD007582002206
:00000001FF
