:03000000020006F5
:03001900020003DF
:0300030002006197
:20001C00AE82AF838E048F051EBEFF011FEC4D6013758A67758CFCC28DD28C308DFDC28C7D
:20003C00C28D80E022C29090000112001CD29090000102001CC29090000312001CD29090AC
:20005C00000102001C5391FE439201D29012004112004112004190000212001C120051121D
:16007C00005112005190000212001C12004112004112004180FE83
:06001300E478FFF6D8FDC1
:0D000600758107120092E58260030200037D
:040092007582002251
:00000001FF
