:03000000020006F5
:03005F0002000399
:03000300020208EE
:10006200AF825308078508F005F0EF800225E0D53E
:10007200F0FBFE7408C39508F5F005F0EF8002C3AB
:1000820013D5F0FB4EF58222AF825308078508F0A4
:1000920005F0EF8002C313D5F0FBFEAD087408C370
:1000A2009DFD8DF005F0EF800225E0D5F0FB4EF5C9
:1000B2008222AE82AF8353080FAD088DF005F0ABFC
:1000C20006AC078006EB2BFBEC33FCD5F0F7741083
:1000D200C39DFD8DF005F08007C3EF13FFEE13FE05
:1000E200D5F0F6EE4BF582EF4CF58322AE82AF836C
:1000F20053080F8508F005F0AC06AD078007C3ED85
:1001020013FDEC13FCD5F0F67410C39508FB8BF0CD
:1001120005F08006EE2EFEEF33FFD5F0F7EE4CF53C
:1001220082EF4DF5832285820985830A85F00BF5DE
:100132000C53081FAB088BF005F0A809A90AAA0BFB
:10014200AF0C800CE828F8E933F9EA33FAEF33FF11
:10015200D5F0F17420C39BFB8BF005F0AB09AE0A1E
:10016200AD0BAC0C800DC3EC13FCED13FDEE13FED6
:10017200EB13FBD5F0F0EB4200EE4201ED4202EC54
:100182004207888289838AF0EF2285820985830A61
:1001920085F00BF50C53081F8508F005F0A809A996
:1001A2000AAA0BAB0C800DC3EB13FBEA13FAE9139B
:1001B200F9E813F8D5F0F07420C39508FF8FF00525
:1001C200F0AF09AE0AAD0BAC0C800CEF2FFFEE3393
:1001D200FEED33FDEC33FCD5F0F1EF4200EE4201CF
:1001E200ED4202EC4203888289838AF0EB227F008F
:1001F2007E007DC8ED14FD70FB0EBE010040F30FC2
:10020200BFC80040EB227FFE7508018F8212006298
:0D021200AF828F90C0071201F0D00780EB83
:06003500E478FFF6D8FD9F
:100013007900E94400601B7A00900223780175A0FF
:1000230000E493F2A308B8000205A0D9F4DAF2754C
:02003300A0FF2C
:10003B007800E84400600A790175A000E4F309D860
:10004B00FC7800E84400600C7900900001E4F0A318
:04005B00D8FCD9FAFA
:0D00060075810C12021FE5826003020003E9
:04021F0075820022C2
:00000001FF
