:0400000002001132B7
:03000B0002002DC3
:090024007514FF7515FF02000EB2
:03000E0002016389
:20002D00C0E0C007C006C005C004C001C0D075D000758A67758CFCAE12AF1374012EF512D8
:20004D00E43FF513758000AE1074015E7D004D24FF92A074025E7D004D24FF92A153060472
:20006D007F00EE4F24FF92A2E5102408F98780AF100F74075FF510E511F4F5B0D0D0D00192
:20008D00D004D005D006D007D0E032C2A9851282851383D2A922120098AE82AF83C3EE948E
:2000AD000AEF94004004758205227582FF22120098E5828583F0C39516FEE5F09517FFC374
:2000CD00EE9405EF94005001221200988582168583171200A3E582FFB514028F158F142261
:2000ED007405B515067E017F0080047E007F00EEFF6009E51870057D01FE80047D007E0068
:20010D008F18ED700122900199E493FF8F0875112075190122E519600122120098E5828506
:20012D0083F0C3951BFEE5F0951CFFC3EE9405EF940050012212009885821B85831C051AFA
:20014D00AF1A74075FF5F005F07401800225E0D5F0FBFF8F1122900194E493FF8F087511E0
:20016D0001538E7FE58954F04401F589758A67758CFCD2A9D2AFD28C1200BB1200ED120100
:03018D002280F5D8
:100194003F065B4F666D7D077F6F777C395E7971B3
:06001E00E478FFF6D8FDB6
:0D00110075811C120190E582600302000E53
:040190007582002252
:00000001FF
