:03000000020006F5
:03005F0002000399
:0300030002006296
:100062007595007596FF759300759403759D0175DE
:10007200BCE800000000E5BC30E4FB53BCEFAEBDC1
:100082007F00EE2EFEEF33FFEE2EFEEF33FFACBE0F
:100092005304037D00EC4206ED42078E04EFC313C6
:1000A200CC13CCC313CC13CC8CA0E58054FCFD74D0
:0700B200035E4DF58080FEA6
:06003500E478FFF6D8FD9F
:100013007900E94400601B7A009000BD780175A067
:1000230000E493F2A308B8000205A0D9F4DAF2754C
:02003300A0FF2C
:10003B007800E84400600A790175A000E4F309D860
:10004B00FC7800E84400600C7900900001E4F0A318
:04005B00D8FCD9FAFA
:0D0006007581071200B9E582600302000356
:0400B900758200222A
:00000001FF
