:03000000020006F5
:03005F0002000399
:0300030002006296
:10006200759D0175BCE800000000E5BC30E4FB535F
:10007200BCEFAEBD7F00EE2EFEEF33FFEE2EFEEFA5
:1000820033FFACBE5304037D00EC4206ED4207751C
:10009200B10075B201EE4F700553B0FE801143B04E
:1000A20001EFC313CE13CEC313CE13CEFF8EA080A7
:0100B200FE4F
:06003500E478FFF6D8FD9F
:100013007900E94400601B7A009000B7780175A06D
:1000230000E493F2A308B8000205A0D9F4DAF2754C
:02003300A0FF2C
:10003B007800E84400600A790175A000E4F309D860
:10004B00FC7800E84400600C7900900001E4F0A318
:04005B00D8FCD9FAFA
:0D0006007581071200B3E58260030200035C
:0400B3007582002230
:00000001FF
