:100000000C9434000C943E000C943E000C943E0082
:100010000C943E000C943E000C943E000C943E0068
:100020000C943E000C943E000C943E000C943E0058
:100030000C943E000C943E000C943E000C943E0048
:100040000C943E000C943E000C943E000C943E0038
:100050000C943E000C943E000C943E000C943E0028
:100060000C943E000C943E0011241FBECFEFD8E04C
:10007000DEBFCDBF0E9447000C94AF000C9400007F
:100080009091C00095FFFCCF8093C6000895CF9358
:10009000DF9300D000D000D0CDB7DEB71092C500FE
:1000A00087E68093C40088E08093C10086E0809357
:1000B000C20080E480937C0087EC80937A0080917A
:1000C0007A0086FDFCCFE0907800F090790081E422
:1000D0000E9440008DE30E944000E114F10421F4ED
:1000E00080E30E9440001EC0CE0101966C01FC011D
:1000F00000E010E02AE030E00F5F1F4FC701B901B8
:100100000E949B00805D81937B01672BA9F70C0DFA
:100110001D1DC016D10631F0F80182918F010E9499
:100120004000F7CF8AE00E944000259A95B180E216
:10013000892785B9FFCFAA1BBB1B51E107C0AA1FA6
:10014000BB1FA617B70710F0A61BB70B881F991F78
:100150005A95A9F780959095BC01CD010895F89422
:02016000FFCFCF
:00000001FF
