:100000000C9434000C9446000C9446000C9446006A
:100010000C9446000C9446000C9446000C94460048
:100020000C9446000C9446000C9446000C94460038
:100030000C9446000C9446000C9446000C94460028
:100040000C9448000C9446000C9446000C94460016
:100050000C9446000C9446000C9446000C94460008
:100060000C9446000C94460011241FBECFEFD8E03C
:10007000DEBFCDBF21E0A0E0B1E001C01D92A13004
:10008000B207E1F70E9465000C946E000C9400002A
:100090001F920F920FB60F9211248F939F9380910E
:1000A00000018F5F8093000180910001823030F069
:1000B00095B180E2892785B9109200019F918F91B7
:1000C0000F900FBE0F901F901895259A14BC83E0D7
:1000D00085BD81E080936E007894FFCFF894FFCFC8
:00000001FF
