:03000000020006F5
:08005F00E4F50FF510020003A7
:0300030002022DC9
:200067002290000022229000002222900000222222229000002290000022900000229000F1
:20008700002290000022900000229000002290000022900000229000002290000022222215
:2000A7007F1ADFFE22D2A1D2A21200A7C2A11200A7C2A222C2A1D2A21200A7D2A10200A7B3
:2000C700AF827E008F045304807D00EC4D24FF92A18F05ED2DFFD2A2C007C0061200A7C2CB
:2000E700A21200A7D006D0070EBE080040D6D2A1D2A21200A7C2A20200A7AF82C007120050
:20010700AC75824E1200C7D0078F821200C70200BBAF8274F05F4408FFE508420774044F54
:20012700F582C007120101D00774FB5FF582020101AF8274F05FF582750800C0071201186C
:20014700D007EFC454F0FF74F05FF582750800020118AF8274F05FF582750801C007120136
:2001670018D007EFC454F0FF74F05FF582750801020118AE09AD0A7F008E828D838FF01222
:20018700023EFC60188C820EBE00010DC007C006C005120159D005D006D00780DC22E50B0E
:2001A70030E0067E407F0080047E007F00430680AF0D740F5F4EF582020138758201020102
:2001C700389000002222222222900000225391FE439201C290538E7FE58954F04401F58915
:2001E700439506439606D2A1D2A275080075823012011875080075823012011875080075C4
:20020700823012011875080075822012011875822812013875820C1201387582061201383B
:170227007582010201381201D4E4F509F50A850F8285108302017A1A
:06003500E478FFF6D8FD9F
:200013007900E94400601B7A0090025E780175A000E493F2A308B8000205A0D9F4DAF27533
:02003300A0FF2C
:20003B007800E84400600A790175A000E4F309D8FC7800E84400600C7900900001E4F0A3C3
:04005B00D8FCD9FAFA
:0D00060075811812025AE5826003020003A2
:1C023E0020F71430F6148883A88220F507E6A88375830022E280F7E49322E022CF
:04025A007582002287
:00000001FF
