:0400000002001132B7
:03000B0002002DC3
:090024007513FF7514FF02000EB4
:03000E00020126C6
:20002D00C0E0C082C083C007C006C005C004C001C0D075D000758A67758CFCAE11AF12748B
:20004D00012EF511E43FF5127580FFE51090014F93FFC2B57E008F045304807D00EC4D24A0
:20006D00FF92B48F05ED2DFFD2B6C2B60EBE080040E4D2B5C2B5E5102408F9E7F4F580AF72
:20008D00100F74075FF510D0D0D001D004D005D006D007D083D082D0E032C2A985118285FF
:2000AD001283D2A9221200A7AE82AF83C3EE940AEF94004004758205227582FF221200A7E1
:2000CD00E5828583F0C39515FEE5F09516FFC3EE9405EF94005001221200A78582158583AD
:2000ED00161200B2E582FFB513028F148F13227405B514067E017F0080047E007F00EEFFCE
:20010D006009E51770057D01FE80047D007E008F17ED700122750DFF227508AA75095553E7
:1E012D008E7FE58954F04401F589758A67758CFCD2A9D2AFD28C1200CA1200FC80F813
:08014F008040201008040201A9
:06001E00E478FFF6D8FDB6
:0D00110075811712014BE582600302000E9D
:04014B007582002297
:00000001FF
