:03000000020006F5
:10005F00E4F50FF510F511F512F513F51402000381
:03000300020235C1
:20006F002290000022229000002222900000222222229000002290000022900000229000E9
:20008F0000229000002290000022900000229000002290000022900000229000002222220D
:2000AF007F02DFFE22D2A1D2A21200AFC2A11200AFC2A222C2A1D2A21200AFD2A10200AFA3
:2000CF00AF827E008F045304807D00EC4D24FF92A18F05ED2DFFD2A2C007C0061200AFC2BB
:2000EF00A21200AFD006D0070EBE080040D6D2A1D2A21200AFC2A20200AFAF82C007120030
:20010F00B475824E1200CFD0078F821200CF0200C3AF8274F05F4408FFE508420774044F2C
:20012F00F582C007120109D00774FB5FF582020109AF8274F05FF582750800C0071201204C
:20014F00D007EFC454F0FF74F05FF582750800020120AF8274F05FF582750801C007120126
:20016F0020D007EFC454F0FF74F05FF582750801020120AE09AD0A7F008E828D838FF0120A
:20018F00025AFC60188C820EBE00010DC007C006C005120161D005D006D00780DC22E50BE2
:2001AF0030E0067E407F0080047E007F00430680AF0D740F5F4EF5820201407582010201F2
:2001CF00409000002222222222900000225391FE439201C290538E7FE58954F04401F58905
:2001EF00439506439606D2A1D2A275080075823012012075080075823012012075080075AC
:20020F00823012012075080075822012012075822812014075820C1201407582061201400B
:20022F007582010201401201DCE4F509F50A850F82851083120182851311851412E4F509AB
:0B024F00F50A850F82851083020182F2
:06003500E478FFF6D8FD9F
:200013007900E94400601B7A0090027A780175A000E493F2A308B8000205A0D9F4DAF27517
:02003300A0FF2C
:20003B007800E84400600A790175A000E4F309D8FC7800E84400600C7900900001E4F0A3C3
:04005B00D8FCD9FAFA
:0D00060075811C120276E582600302000382
:1C025A0020F71430F6148883A88220F507E6A88375830022E280F7E49322E022B3
:04027600758200226B
:00000001FF
