:0400000002001132B7
:03000B0002002AC6
:06002400751A0302000E34
:03000E00020100EC
:20002A00C0E0C082C083C007C006C005C004C001C0D075D000758A67758CFC7580FFE51891
:20004A0090014193FFC2B57E008F045304807D00EC4D24FF92B48F05ED2DFFD2B6C2B60EF9
:20006A00BE080040E4D2B5C2B5C3E519951A5028E5182408F98707AE1874082E2408F987DA
:20008A0006E5197005EE4FFD80107401B519048E058007EE5FFD80027D00EDF4F5800518F6
:2000AA0074F82518500E751800051974FD25195003751900D0D0D001D004D005D006D0072D
:2000CA00D083D082D0E032AF827E008E05EDC40354F88F042C2408F9E51B30E0067CFF7D5B
:2000EA000080047C007D00A704E51BC313F51B0EBE020040D622751B037582001200D17500
:20010A001B027582011200D1751B017582021200D1751B007582031200D1538E7FE58954E1
:13012A00F04401F589758A67758CFCD2A9D2AFD28C80FED4
:080141008040201008040201B7
:06001E00E478FFF6D8FDB6
:0D00110075811B12013DE582600302000EA7
:04013D0075820022A5
:00000001FF
