:0400000002001132B7
:03000B0002006D83
:03006A0002000E83
:03000E000200D419
:20006D00C0E0C007C006C0D075D000758A67758CFCAE12AF1374012EF512E43FF513D0D017
:20008D00D006D007D0E0328582E07F08D29533400BC295000000000000DFF1220000000028
:2000AD0000C2950000DFE522E51175F003A4FFC2AF7E00C3EE9F500CEE2408F9878212002C
:2000CD00940E80EFD2AF22439220C295751103538E7FE58954F04401F589758A67758CFC52
:2000ED00D28CD2A9D2AFAE12AF137508007509FF750A00750BFF750C00750D00750E007524
:1B010D000F007510FFC007C0061200B5D006D007AC12AD13ECC39EF58080FE85
:06004000E478FFF6D8FD94
:20001E007900E94400601B7A0090012C780175A000E493F2A308B8000205A0D9F4DAF2755B
:02003E00A0FF21
:200046007800E84400600A790175A000E4F309D8FC7800E84400600C7900900001E4F0A3B8
:04006600D8FCD9FAEF
:0D001100758113120128E582600302000EC4
:0401280075820022BA
:00000001FF
