:0400000002001132B7
:03000B0002006D83
:03006A0002000E83
:03000E000201AF3D
:10006D00C0E0C007C006C0D075D000758A67758C1A
:10007D00FCAE08AF0974012EF508E43FF509D0D0A8
:10008D00D006D007D0E032C2A9850882850983D277
:10009D00A922C37403950AE4950B500122E50A7554
:1000AD00F003A49000B4730200C00200C60200E089
:1000BD0002010D750A01750B00C290120094E582C4
:1000CD008583F024F4F50C740135F0F50D750A02F5
:1000DD00750B00120094E5828583F0C3950CE5F055
:1000ED00950D30E70122D290120094E5828583F0C0
:1000FD0024F4F50C740135F0F50D750A03750B003C
:10010D00120094E5828583F0C3950CE5F0950D30D2
:10011D00E70122750A01750B0022C37403950EE4E5
:10012D00950F500122E50E75F003A490013C73026A
:10013D00014802014E020168020195750E01750F0D
:10014D0000C291120094E5828583F0242CF5107481
:10015D000135F0F511750E02750F00120094E58250
:10016D008583F0C39510E5F0951130E70122D2910A
:10017D00120094E5828583F024BCF510740235F0ED
:10018D00F511750E03750F00120094E5828583F04D
:10019D00C39510E5F0951130E70122750E01750F2D
:1001AD000022E58954F04401F589758A67758CFC48
:0E01BD00D28CD2A9D2AF12009F12012780F877
:06004000E478FFF6D8FD94
:10001E007900E94400601B7A009001CF780175A049
:10002E0000E493F2A308B8000205A0D9F4DAF27541
:02003E00A0FF21
:100046007800E84400600A790175A000E4F309D855
:10005600FC7800E84400600C7900900001E4F0A30D
:04006600D8FCD9FAEF
:0D0011007581111201CBE582600302000E23
:0401CB007582002217
:00000001FF
