:04000000020039328F
:01000B0032C2
:0100130032BA
:01001B0032B2
:0100230032AA
:01002B0032A2
:0300330002011FA8
:0300920002003633
:030036000201982C
:10009500AE82E583FF30E7047E007F00C374B49E23
:1000A50074808FF063F08095F050047EB47F008EED
:1000B5000CEFF50D3395E0F50EF50F9007D0E4F54F
:1000C500F0120226AC82AD83AEF0FF750CB4E4F5F8
:1000D5000DF50EF50F8C828D838EF0EF1201C1ACFC
:1000E50082AD83AEF0FF74F42CF50C74013DF50D73
:1000F500E43EF50EE43FF50F90100075F00EE412A6
:100105000226750C40750D42750E0F750F00120114
:10011500C1AC82AD838C088D0922C0E0C007C00642
:10012500C005C004C0D075D000E5D820E0028056D7
:1001350053D8FEE50A450B7024D293AFFA7E00AC86
:10014500EA7D00EC4206ED4207E5082EFEE5093F93
:10015500FF8EEA8FFA750A01750B008029C293AFED
:10016500FA7E00ACEA7D00EC4206ED4207E4C39559
:1001750008FC74489509FDEC2EFEED3FFF8EEA8FD5
:10018500FAE4F50AF50BD0D0D004D005D006D00797
:10019500D0E03243920875D90075DA4975EA0075E1
:1001A500FA0075E90075F90075D84090005A1200FB
:1001B50095E4F50AF50BD2AFD2AE80FEFB7A20E4CA
:1001C500FCFDFEFFE5822582F582E58333F583E5B7
:1001D500F033F5F0EB33FB4017DAE98042E5822591
:1001E50082F582E58333F583E5F033F5F0EB33FBF8
:1001F500EC33FCED33FDEE33FEEF33FFEC950CED08
:10020500950DEE950EEF950F4013EC950CFCED95C5
:100215000DFDEE950EFEEF950FFF438201DABEEB65
:0102250022B6
:06006800E478FFF6D8FD6C
:100046007900E94400601B7A00900298780175A057
:1000560000E493F2A308B8000205A0D9F4DAF27519
:02006600A0FFF9
:10022600AAF0FBE582850CF0A4FCADF0E583850C15
:10023600F0A42DFDE435F0FEE582850DF0A42DFD3C
:10024600E5F03EFEE433FFEA850CF0A42EFEE5F071
:100256003FFFE583850DF0A42EFEE5F03FFFE58226
:10026600850EF0A42EFEE5F03FFFEB850CF0A42FE3
:10027600FFEA850DF0A42FFFE583850EF0A42FFF7E
:0E028600E582850FF0A42F8EF08D838C8222EE
:10006E007800E84400600A790175A000E4F309D82D
:10007E00FC7800E84400600C7900900001E4F0A3E5
:04008E00D8FCD9FAC7
:0D00390075810F120294E58260030200360B
:04029400758200224D
:00000001FF
