:040000000200413287
:01000B0032C2
:0100130032BA
:01001B0032B2
:0100230032AA
:01002B0032A2
:01003300329A
:03003B0002012798
:03009A0002003E23
:03003E000201A01C
:10009D00AE82E583FF30E7047E007F00C374B49E1B
:1000AD0074808FF063F08095F050047EB47F008EE5
:1000BD000CEFF50D3395E0F50EF50F9007D0E4F547
:1000CD00F012022CAC82AD83AEF0FF750CB4E4F5EA
:1000DD000DF50EF50F8C828D838EF0EF1201C7ACEE
:1000ED0082AD83AEF0FF74F42CF50C74013DF50D6B
:1000FD00E43EF50EE43FF50F90100075F00EE4129E
:10010D00022C750C40750D42750E0F750F00120106
:10011D00C7AC82AD838C088D0922C0E0C007C00634
:10012D00C005C004C0D075D000E5D820E0028056CF
:10013D0053D8FEE50A450B7024D293AFFA7E00AC7E
:10014D00EA7D00EC4206ED4207E5082EFEE5093F8B
:10015D00FF8EEA8FFA750A01750B008029C293AFE5
:10016D00FA7E00ACEA7D00EC4206ED4207E4C39551
:10017D0008FC74489509FDEC2EFEED3FFF8EEA8FCD
:10018D00FAE4F50AF50BD0D0D004D005D006D0078F
:10019D00D0E03243920875D90075DA4975EA0075D9
:1001AD00FA0075E90075F90075D8409000B4120099
:1001BD009DE4F50AF50BD2AF80FEFB7A20E4FCFD41
:1001CD00FEFFE5822582F582E58333F583E5F03385
:1001DD00F5F0EB33FB4017DAE98042E5822582F535
:1001ED0082E58333F583E5F033F5F0EB33FBEC3348
:1001FD00FCED33FDEE33FEEF33FFEC950CED950D7D
:10020D00EE950EEF950F4013EC950CFCED950DFD55
:0F021D00EE950EFEEF950FFF438201DABEEB2246
:06007000E478FFF6D8FD64
:10004E007900E94400601B7A0090029E780175A049
:10005E0000E493F2A308B8000205A0D9F4DAF27511
:02006E00A0FFF1
:10022C00AAF0FBE582850CF0A4FCADF0E583850C0F
:10023C00F0A42DFDE435F0FEE582850DF0A42DFD36
:10024C00E5F03EFEE433FFEA850CF0A42EFEE5F06B
:10025C003FFFE583850DF0A42EFEE5F03FFFE58220
:10026C00850EF0A42EFEE5F03FFFEB850CF0A42FDD
:10027C00FFEA850DF0A42FFFE583850EF0A42FFF78
:0E028C00E582850FF0A42F8EF08D838C8222E8
:100076007800E84400600A790175A000E4F309D825
:10008600FC7800E84400600C7900900001E4F0A3DD
:04009600D8FCD9FABF
:0D00410075810F12029AE582600302003EF5
:04029A007582002247
:00000001FF
