:03000000020006F5
:03005F0002000399
:0300030002006296
:10006200758911758CFC758A67758DFC758B675364
:100072008E3F7590FFD28CD28E108D0280FBAE9097
:100082006306018E90108F0280FBAE906306028E93
:0A00920090AE906306048E9080FE8D
:06003500E478FFF6D8FD9F
:100013007900E94400601B7A009000A0780175A084
:1000230000E493F2A308B8000205A0D9F4DAF2754C
:02003300A0FF2C
:10003B007800E84400600A790175A000E4F309D860
:10004B00FC7800E84400600C7900900001E4F0A318
:04005B00D8FCD9FAFA
:0D00060075810712009CE582600302000373
:04009C007582002247
:00000001FF
